{
  "contractName": "DelayedClaimable",
  "abi": [
    {
      "constant": true,
      "inputs": [],
      "name": "owner",
      "outputs": [
        {
          "name": "",
          "type": "address"
        }
      ],
      "payable": false,
      "stateMutability": "view",
      "type": "function"
    },
    {
      "constant": true,
      "inputs": [],
      "name": "start",
      "outputs": [
        {
          "name": "",
          "type": "uint256"
        }
      ],
      "payable": false,
      "stateMutability": "view",
      "type": "function"
    },
    {
      "constant": true,
      "inputs": [],
      "name": "pendingOwner",
      "outputs": [
        {
          "name": "",
          "type": "address"
        }
      ],
      "payable": false,
      "stateMutability": "view",
      "type": "function"
    },
    {
      "constant": true,
      "inputs": [],
      "name": "end",
      "outputs": [
        {
          "name": "",
          "type": "uint256"
        }
      ],
      "payable": false,
      "stateMutability": "view",
      "type": "function"
    },
    {
      "constant": false,
      "inputs": [
        {
          "name": "newOwner",
          "type": "address"
        }
      ],
      "name": "transferOwnership",
      "outputs": [],
      "payable": false,
      "stateMutability": "nonpayable",
      "type": "function"
    },
    {
      "anonymous": false,
      "inputs": [
        {
          "indexed": true,
          "name": "previousOwner",
          "type": "address"
        },
        {
          "indexed": true,
          "name": "newOwner",
          "type": "address"
        }
      ],
      "name": "OwnershipTransferred",
      "type": "event"
    },
    {
      "constant": false,
      "inputs": [
        {
          "name": "_start",
          "type": "uint256"
        },
        {
          "name": "_end",
          "type": "uint256"
        }
      ],
      "name": "setLimits",
      "outputs": [],
      "payable": false,
      "stateMutability": "nonpayable",
      "type": "function"
    },
    {
      "constant": false,
      "inputs": [],
      "name": "claimOwnership",
      "outputs": [],
      "payable": false,
      "stateMutability": "nonpayable",
      "type": "function"
    }
  ],
  "bytecode": "0x608060405260008054600160a060020a033316600160a060020a03199091161790556102dc806100306000396000f3006080604052600436106100825763ffffffff7c01000000000000000000000000000000000000000000000000000000006000350416634e71e0c881146100875780638da5cb5b1461009e578063be9a6555146100cf578063c4590d3f146100f6578063e30c397814610111578063efbe1c1c14610126578063f2fde38b1461013b575b600080fd5b34801561009357600080fd5b5061009c61015c565b005b3480156100aa57600080fd5b506100b361020c565b60408051600160a060020a039092168252519081900360200190f35b3480156100db57600080fd5b506100e461021b565b60408051918252519081900360200190f35b34801561010257600080fd5b5061009c600435602435610221565b34801561011d57600080fd5b506100b3610251565b34801561013257600080fd5b506100e4610260565b34801561014757600080fd5b5061009c600160a060020a0360043516610266565b60015433600160a060020a0390811691161461017757600080fd5b600254431115801561018b57506003544310155b151561019657600080fd5b60015460008054604051600160a060020a0393841693909116917f8be0079c531659141344cd1fd0a4f28419497f9722a3daafe3b4186f6b6457e091a3600180546000805473ffffffffffffffffffffffffffffffffffffffff19908116600160a060020a038416178255909116909155600255565b600054600160a060020a031681565b60035481565b60005433600160a060020a0390811691161461023c57600080fd5b8082111561024957600080fd5b600255600355565b600154600160a060020a031681565b60025481565b60005433600160a060020a0390811691161461028157600080fd5b6001805473ffffffffffffffffffffffffffffffffffffffff1916600160a060020a03929092169190911790555600a165627a7a7230582015cc37d9350ac664697eaf107cdeaf1525a84480c8c2721b3a332400534446af0029",
  "source": "pragma solidity ^0.4.23;\n\nimport \"./Claimable.sol\";\n\n\n/**\n * @title DelayedClaimable\n * @dev Extension for the Claimable contract, where the ownership needs to be claimed before/after\n * a certain block number.\n */\ncontract DelayedClaimable is Claimable {\n\n  uint256 public end;\n  uint256 public start;\n\n  /**\n   * @dev Used to specify the time period during which a pending\n   * owner can claim ownership.\n   * @param _start The earliest time ownership can be claimed.\n   * @param _end The latest time ownership can be claimed.\n   */\n  function setLimits(uint256 _start, uint256 _end) onlyOwner public {\n    require(_start <= _end);\n    end = _end;\n    start = _start;\n  }\n\n  /**\n   * @dev Allows the pendingOwner address to finalize the transfer, as long as it is called within\n   * the specified start and end time.\n   */\n  function claimOwnership() onlyPendingOwner public {\n    require((block.number <= end) && (block.number >= start));\n    emit OwnershipTransferred(owner, pendingOwner);\n    owner = pendingOwner;\n    pendingOwner = address(0);\n    end = 0;\n  }\n\n}\n",
  "sourcePath": "D:\\Projects\\ico-platform\\src\\ico-platform-tanzo-contracts\\contracts\\lib\\ownership\\DelayedClaimable.sol",
  "compiler": {
    "name": "solc",
    "version": "0.4.23+commit.124ca40d.Emscripten.clang"
  },
  "schemaVersion": "2.0.0",
  "updatedAt": "2018-05-17T08:50:34.610Z"
}