{
  "contractName": "TanzoTokenMock",
  "abi": [
    {
      "constant": false,
      "inputs": [],
      "name": "freezeTransfers",
      "outputs": [],
      "payable": false,
      "stateMutability": "nonpayable",
      "type": "function"
    },
    {
      "constant": true,
      "inputs": [],
      "name": "name",
      "outputs": [
        {
          "name": "",
          "type": "string"
        }
      ],
      "payable": false,
      "stateMutability": "view",
      "type": "function"
    },
    {
      "constant": false,
      "inputs": [
        {
          "name": "_spender",
          "type": "address"
        },
        {
          "name": "_value",
          "type": "uint256"
        }
      ],
      "name": "approve",
      "outputs": [
        {
          "name": "",
          "type": "bool"
        }
      ],
      "payable": false,
      "stateMutability": "nonpayable",
      "type": "function"
    },
    {
      "constant": true,
      "inputs": [],
      "name": "totalSupply",
      "outputs": [
        {
          "name": "",
          "type": "uint256"
        }
      ],
      "payable": false,
      "stateMutability": "view",
      "type": "function"
    },
    {
      "constant": false,
      "inputs": [
        {
          "name": "_from",
          "type": "address"
        },
        {
          "name": "_to",
          "type": "address"
        },
        {
          "name": "_value",
          "type": "uint256"
        }
      ],
      "name": "transferFrom",
      "outputs": [
        {
          "name": "",
          "type": "bool"
        }
      ],
      "payable": false,
      "stateMutability": "nonpayable",
      "type": "function"
    },
    {
      "constant": true,
      "inputs": [],
      "name": "decimals",
      "outputs": [
        {
          "name": "",
          "type": "uint8"
        }
      ],
      "payable": false,
      "stateMutability": "view",
      "type": "function"
    },
    {
      "constant": false,
      "inputs": [],
      "name": "unfreezeTransfers",
      "outputs": [],
      "payable": false,
      "stateMutability": "nonpayable",
      "type": "function"
    },
    {
      "constant": false,
      "inputs": [],
      "name": "claimOwnership",
      "outputs": [],
      "payable": false,
      "stateMutability": "nonpayable",
      "type": "function"
    },
    {
      "constant": false,
      "inputs": [
        {
          "name": "_spender",
          "type": "address"
        },
        {
          "name": "_subtractedValue",
          "type": "uint256"
        }
      ],
      "name": "decreaseApproval",
      "outputs": [
        {
          "name": "",
          "type": "bool"
        }
      ],
      "payable": false,
      "stateMutability": "nonpayable",
      "type": "function"
    },
    {
      "constant": false,
      "inputs": [
        {
          "name": "_token",
          "type": "address"
        },
        {
          "name": "_to",
          "type": "address"
        }
      ],
      "name": "claimTokens",
      "outputs": [
        {
          "name": "",
          "type": "bool"
        }
      ],
      "payable": false,
      "stateMutability": "nonpayable",
      "type": "function"
    },
    {
      "constant": true,
      "inputs": [
        {
          "name": "_owner",
          "type": "address"
        }
      ],
      "name": "balanceOf",
      "outputs": [
        {
          "name": "balance",
          "type": "uint256"
        }
      ],
      "payable": false,
      "stateMutability": "view",
      "type": "function"
    },
    {
      "constant": true,
      "inputs": [],
      "name": "owner",
      "outputs": [
        {
          "name": "",
          "type": "address"
        }
      ],
      "payable": false,
      "stateMutability": "view",
      "type": "function"
    },
    {
      "constant": true,
      "inputs": [],
      "name": "TOTAL_SUPPLY",
      "outputs": [
        {
          "name": "",
          "type": "uint256"
        }
      ],
      "payable": false,
      "stateMutability": "view",
      "type": "function"
    },
    {
      "constant": true,
      "inputs": [],
      "name": "symbol",
      "outputs": [
        {
          "name": "",
          "type": "string"
        }
      ],
      "payable": false,
      "stateMutability": "view",
      "type": "function"
    },
    {
      "constant": false,
      "inputs": [
        {
          "name": "_to",
          "type": "address"
        },
        {
          "name": "_value",
          "type": "uint256"
        }
      ],
      "name": "transfer",
      "outputs": [
        {
          "name": "",
          "type": "bool"
        }
      ],
      "payable": false,
      "stateMutability": "nonpayable",
      "type": "function"
    },
    {
      "constant": true,
      "inputs": [],
      "name": "start",
      "outputs": [
        {
          "name": "",
          "type": "uint256"
        }
      ],
      "payable": false,
      "stateMutability": "view",
      "type": "function"
    },
    {
      "constant": false,
      "inputs": [
        {
          "name": "_start",
          "type": "uint256"
        },
        {
          "name": "_end",
          "type": "uint256"
        }
      ],
      "name": "setLimits",
      "outputs": [],
      "payable": false,
      "stateMutability": "nonpayable",
      "type": "function"
    },
    {
      "constant": false,
      "inputs": [
        {
          "name": "_spender",
          "type": "address"
        },
        {
          "name": "_addedValue",
          "type": "uint256"
        }
      ],
      "name": "increaseApproval",
      "outputs": [
        {
          "name": "",
          "type": "bool"
        }
      ],
      "payable": false,
      "stateMutability": "nonpayable",
      "type": "function"
    },
    {
      "constant": true,
      "inputs": [
        {
          "name": "_owner",
          "type": "address"
        },
        {
          "name": "_spender",
          "type": "address"
        }
      ],
      "name": "allowance",
      "outputs": [
        {
          "name": "",
          "type": "uint256"
        }
      ],
      "payable": false,
      "stateMutability": "view",
      "type": "function"
    },
    {
      "constant": true,
      "inputs": [],
      "name": "pendingOwner",
      "outputs": [
        {
          "name": "",
          "type": "address"
        }
      ],
      "payable": false,
      "stateMutability": "view",
      "type": "function"
    },
    {
      "constant": true,
      "inputs": [],
      "name": "end",
      "outputs": [
        {
          "name": "",
          "type": "uint256"
        }
      ],
      "payable": false,
      "stateMutability": "view",
      "type": "function"
    },
    {
      "constant": false,
      "inputs": [
        {
          "name": "newOwner",
          "type": "address"
        }
      ],
      "name": "transferOwnership",
      "outputs": [],
      "payable": false,
      "stateMutability": "nonpayable",
      "type": "function"
    },
    {
      "inputs": [],
      "payable": false,
      "stateMutability": "nonpayable",
      "type": "constructor"
    },
    {
      "anonymous": false,
      "inputs": [
        {
          "indexed": true,
          "name": "owner",
          "type": "address"
        }
      ],
      "name": "Freeze",
      "type": "event"
    },
    {
      "anonymous": false,
      "inputs": [
        {
          "indexed": true,
          "name": "owner",
          "type": "address"
        }
      ],
      "name": "Unfreeze",
      "type": "event"
    },
    {
      "anonymous": false,
      "inputs": [
        {
          "indexed": true,
          "name": "previousOwner",
          "type": "address"
        },
        {
          "indexed": true,
          "name": "newOwner",
          "type": "address"
        }
      ],
      "name": "OwnershipTransferred",
      "type": "event"
    },
    {
      "anonymous": false,
      "inputs": [
        {
          "indexed": true,
          "name": "owner",
          "type": "address"
        },
        {
          "indexed": true,
          "name": "spender",
          "type": "address"
        },
        {
          "indexed": false,
          "name": "value",
          "type": "uint256"
        }
      ],
      "name": "Approval",
      "type": "event"
    },
    {
      "anonymous": false,
      "inputs": [
        {
          "indexed": true,
          "name": "from",
          "type": "address"
        },
        {
          "indexed": true,
          "name": "to",
          "type": "address"
        },
        {
          "indexed": false,
          "name": "value",
          "type": "uint256"
        }
      ],
      "name": "Transfer",
      "type": "event"
    }
  ],
  "bytecode": "0x60806040526002805460ff1916905534801561001a57600080fd5b5060048054600160a060020a03191633600160a060020a03169081179091556b019d971e4fe8401e74000000600181905560008281526020818152604080832084905580519384525191927fddf252ad1be2c89b69c2b068fc378daa952ba7f163c4a11628f55a4df523b3ef929081900390910190a3610eaf8061009f6000396000f3006080604052600436106101275763ffffffff7c010000000000000000000000000000000000000000000000000000000060003504166301502460811461012c57806306fdde0314610143578063095ea7b3146101cd57806318160ddd1461020557806323b872dd1461022c578063313ce5671461025657806331c420d4146102815780634e71e0c81461029657806366188463146102ab57806369ffa08a146102cf57806370a08231146102f65780638da5cb5b14610317578063902d55a51461034857806395d89b411461035d578063a9059cbb14610372578063be9a655514610396578063c4590d3f146103ab578063d73dd623146103c6578063dd62ed3e146103ea578063e30c397814610411578063efbe1c1c14610426578063f2fde38b1461043b575b600080fd5b34801561013857600080fd5b5061014161045c565b005b34801561014f57600080fd5b506101586104c7565b6040805160208082528351818301528351919283929083019185019080838360005b8381101561019257818101518382015260200161017a565b50505050905090810190601f1680156101bf5780820380516001836020036101000a031916815260200191505b509250505060405180910390f35b3480156101d957600080fd5b506101f1600160a060020a03600435166024356104fe565b604080519115158252519081900360200190f35b34801561021157600080fd5b5061021a610573565b60408051918252519081900360200190f35b34801561023857600080fd5b506101f1600160a060020a0360043581169060243516604435610579565b34801561026257600080fd5b5061026b610717565b6040805160ff9092168252519081900360200190f35b34801561028d57600080fd5b5061014161071c565b3480156102a257600080fd5b50610141610782565b3480156102b757600080fd5b506101f1600160a060020a0360043516602435610834565b3480156102db57600080fd5b506101f1600160a060020a036004358116906024351661093f565b34801561030257600080fd5b5061021a600160a060020a0360043516610b54565b34801561032357600080fd5b5061032c610b6f565b60408051600160a060020a039092168252519081900360200190f35b34801561035457600080fd5b5061021a610b7e565b34801561036957600080fd5b50610158610b8e565b34801561037e57600080fd5b506101f1600160a060020a0360043516602435610bc5565b3480156103a257600080fd5b5061021a610cdc565b3480156103b757600080fd5b50610141600435602435610ce2565b3480156103d257600080fd5b506101f1600160a060020a0360043516602435610d12565b3480156103f657600080fd5b5061021a600160a060020a0360043581169060243516610dc1565b34801561041d57600080fd5b5061032c610dfc565b34801561043257600080fd5b5061021a610e0b565b34801561044757600080fd5b50610141600160a060020a0360043516610e11565b60045433600160a060020a0390811691161461047757600080fd5b60025460ff1615156104c5576002805460ff19166001179055604051600160a060020a033316907faf85b60d26151edd11443b704d424da6c43d0468f2235ebae3d1904dbc32304990600090a25b565b60408051808201909152600b81527f54616e7a6f20546f6b656e000000000000000000000000000000000000000000602082015281565b600060023660441461050c57fe5b600160a060020a03338116600081815260036020908152604080832094891680845294825291829020879055815187815291517f8c5be1e5ebec7d5bd14f71427d1e84f3dd0314c0f7b2291e5b200ac8c7c3b9259281900390910190a35060019392505050565b60015490565b60025460009060ff161561058c57600080fd5b60033660641461059857fe5b600160a060020a03841615156105ad57600080fd5b600160a060020a0385166000908152602081905260409020548311156105d257600080fd5b600160a060020a038086166000908152600360209081526040808320339094168352929052205483111561060557600080fd5b600160a060020a03851660009081526020819052604090205461062e908463ffffffff610e5b16565b600160a060020a038087166000908152602081905260408082209390935590861681522054610663908463ffffffff610e6d16565b600160a060020a03808616600090815260208181526040808320949094558883168252600381528382203390931682529190915220546106a9908463ffffffff610e5b16565b600160a060020a038087166000818152600360209081526040808320338616845282529182902094909455805187815290519288169391927fddf252ad1be2c89b69c2b068fc378daa952ba7f163c4a11628f55a4df523b3ef929181900390910190a3506001949350505050565b601281565b60045433600160a060020a0390811691161461073757600080fd5b60025460ff16156104c5576002805460ff19169055604051600160a060020a033316907fca5069937e68fd197927055037f59d7c90bf75ac104e6e375539ef480c3ad6ee90600090a2565b60055433600160a060020a0390811691161461079d57600080fd5b60065443111580156107b157506007544310155b15156107bc57600080fd5b600554600454604051600160a060020a0392831692909116907f8be0079c531659141344cd1fd0a4f28419497f9722a3daafe3b4186f6b6457e090600090a3600580546004805473ffffffffffffffffffffffffffffffffffffffff19908116600160a060020a038416179091551690556000600655565b60008060023660441461084357fe5b600160a060020a033381166000908152600360209081526040808320938916835292905220549150818411156108a057600160a060020a0333811660009081526003602090815260408083209389168352929052908120556108d7565b6108b0828563ffffffff610e5b16565b600160a060020a033381166000908152600360209081526040808320938a16835292905220555b600160a060020a033381166000818152600360209081526040808320948a168084529482529182902054825190815291517f8c5be1e5ebec7d5bd14f71427d1e84f3dd0314c0f7b2291e5b200ac8c7c3b9259281900390910190a3600192505b505092915050565b6004546000908190819033600160a060020a0390811691161461096157600080fd5b600160a060020a03851615156109b257600454604051600160a060020a039182169130163180156108fc02916000818181858888f193505050501580156109ac573d6000803e3d6000fd5b50610937565b84915081600160a060020a03166370a08231306040518263ffffffff167c01000000000000000000000000000000000000000000000000000000000281526004018082600160a060020a0316600160a060020a03168152602001915050602060405180830381600087803b158015610a2957600080fd5b505af1158015610a3d573d6000803e3d6000fd5b505050506040513d6020811015610a5357600080fd5b5051604080517fa9059cbb000000000000000000000000000000000000000000000000000000008152600160a060020a0387811660048301526024820184905291519293509084169163a9059cbb916044808201926020929091908290030181600087803b158015610ac457600080fd5b505af1158015610ad8573d6000803e3d6000fd5b505050506040513d6020811015610aee57600080fd5b505115610b495783600160a060020a031685600160a060020a03167fddf252ad1be2c89b69c2b068fc378daa952ba7f163c4a11628f55a4df523b3ef836040518082815260200191505060405180910390a360019250610937565b506000949350505050565b600160a060020a031660009081526020819052604090205490565b600454600160a060020a031681565b6b019d971e4fe8401e7400000081565b60408051808201909152600381527f545a4f0000000000000000000000000000000000000000000000000000000000602082015281565b60025460009060ff1615610bd857600080fd5b600236604414610be457fe5b600160a060020a0384161515610bf957600080fd5b600160a060020a033316600090815260208190526040902054831115610c1e57600080fd5b600160a060020a033316600090815260208190526040902054610c47908463ffffffff610e5b16565b600160a060020a033381166000908152602081905260408082209390935590861681522054610c7c908463ffffffff610e6d16565b600160a060020a03808616600081815260208181526040918290209490945580518781529051919333909316927fddf252ad1be2c89b69c2b068fc378daa952ba7f163c4a11628f55a4df523b3ef92918290030190a35060019392505050565b60075481565b60045433600160a060020a03908116911614610cfd57600080fd5b80821115610d0a57600080fd5b600655600755565b6000600236604414610d2057fe5b600160a060020a03338116600090815260036020908152604080832093881683529290522054610d56908463ffffffff610e6d16565b600160a060020a033381166000818152600360209081526040808320948a168084529482529182902085905581519485529051929391927f8c5be1e5ebec7d5bd14f71427d1e84f3dd0314c0f7b2291e5b200ac8c7c3b9259281900390910190a35060019392505050565b6000600236604414610dcf57fe5b5050600160a060020a03918216600090815260036020908152604080832093909416825291909152205490565b600554600160a060020a031681565b60065481565b60045433600160a060020a03908116911614610e2c57600080fd5b6005805473ffffffffffffffffffffffffffffffffffffffff1916600160a060020a0392909216919091179055565b600082821115610e6757fe5b50900390565b600082820183811015610e7c57fe5b93925050505600a165627a7a7230582047761a49b969c4ca902bd20109924ebbb1dd93f060b680a8a96525999596d0c50029",
  "source": "pragma solidity ^0.4.23;\n\nimport \"../TanzoToken.sol\";\n\ncontract TanzoTokenMock is TanzoToken {\n\n  constructor() public {}\n\n}\n",
  "sourcePath": "D:\\Projects\\ico-platform\\src\\ico-platform-tanzo-contracts\\contracts\\mocks\\TanzoTokenMock.sol",
  "compiler": {
    "name": "solc",
    "version": "0.4.23+commit.124ca40d.Emscripten.clang"
  },
  "schemaVersion": "2.0.0",
  "updatedAt": "2018-05-17T08:50:34.613Z"
}