{
  "contractName": "TanzoTokenMock",
  "abi": [
    {
      "constant": true,
      "inputs": [],
      "name": "name",
      "outputs": [
        {
          "name": "",
          "type": "string"
        }
      ],
      "payable": false,
      "stateMutability": "view",
      "type": "function"
    },
    {
      "constant": false,
      "inputs": [
        {
          "name": "_spender",
          "type": "address"
        },
        {
          "name": "_value",
          "type": "uint256"
        }
      ],
      "name": "approve",
      "outputs": [
        {
          "name": "",
          "type": "bool"
        }
      ],
      "payable": false,
      "stateMutability": "nonpayable",
      "type": "function"
    },
    {
      "constant": true,
      "inputs": [],
      "name": "totalSupply",
      "outputs": [
        {
          "name": "",
          "type": "uint256"
        }
      ],
      "payable": false,
      "stateMutability": "view",
      "type": "function"
    },
    {
      "constant": false,
      "inputs": [
        {
          "name": "_from",
          "type": "address"
        },
        {
          "name": "_to",
          "type": "address"
        },
        {
          "name": "_value",
          "type": "uint256"
        }
      ],
      "name": "transferFrom",
      "outputs": [
        {
          "name": "",
          "type": "bool"
        }
      ],
      "payable": false,
      "stateMutability": "nonpayable",
      "type": "function"
    },
    {
      "constant": true,
      "inputs": [],
      "name": "INITIAL_SUPPLY",
      "outputs": [
        {
          "name": "",
          "type": "uint256"
        }
      ],
      "payable": false,
      "stateMutability": "view",
      "type": "function"
    },
    {
      "constant": true,
      "inputs": [],
      "name": "decimals",
      "outputs": [
        {
          "name": "",
          "type": "uint8"
        }
      ],
      "payable": false,
      "stateMutability": "view",
      "type": "function"
    },
    {
      "constant": false,
      "inputs": [],
      "name": "claimOwnership",
      "outputs": [],
      "payable": false,
      "stateMutability": "nonpayable",
      "type": "function"
    },
    {
      "constant": false,
      "inputs": [
        {
          "name": "_spender",
          "type": "address"
        },
        {
          "name": "_subtractedValue",
          "type": "uint256"
        }
      ],
      "name": "decreaseApproval",
      "outputs": [
        {
          "name": "",
          "type": "bool"
        }
      ],
      "payable": false,
      "stateMutability": "nonpayable",
      "type": "function"
    },
    {
      "constant": false,
      "inputs": [
        {
          "name": "_token",
          "type": "address"
        },
        {
          "name": "_to",
          "type": "address"
        }
      ],
      "name": "claimTokens",
      "outputs": [
        {
          "name": "",
          "type": "bool"
        }
      ],
      "payable": false,
      "stateMutability": "nonpayable",
      "type": "function"
    },
    {
      "constant": true,
      "inputs": [
        {
          "name": "_owner",
          "type": "address"
        }
      ],
      "name": "balanceOf",
      "outputs": [
        {
          "name": "balance",
          "type": "uint256"
        }
      ],
      "payable": false,
      "stateMutability": "view",
      "type": "function"
    },
    {
      "constant": true,
      "inputs": [],
      "name": "owner",
      "outputs": [
        {
          "name": "",
          "type": "address"
        }
      ],
      "payable": false,
      "stateMutability": "view",
      "type": "function"
    },
    {
      "constant": false,
      "inputs": [
        {
          "name": "_to",
          "type": "address"
        },
        {
          "name": "_value",
          "type": "uint256"
        }
      ],
      "name": "transfer",
      "outputs": [
        {
          "name": "",
          "type": "bool"
        }
      ],
      "payable": false,
      "stateMutability": "nonpayable",
      "type": "function"
    },
    {
      "constant": true,
      "inputs": [],
      "name": "sybbol",
      "outputs": [
        {
          "name": "",
          "type": "string"
        }
      ],
      "payable": false,
      "stateMutability": "view",
      "type": "function"
    },
    {
      "constant": true,
      "inputs": [],
      "name": "start",
      "outputs": [
        {
          "name": "",
          "type": "uint256"
        }
      ],
      "payable": false,
      "stateMutability": "view",
      "type": "function"
    },
    {
      "constant": false,
      "inputs": [
        {
          "name": "_start",
          "type": "uint256"
        },
        {
          "name": "_end",
          "type": "uint256"
        }
      ],
      "name": "setLimits",
      "outputs": [],
      "payable": false,
      "stateMutability": "nonpayable",
      "type": "function"
    },
    {
      "constant": false,
      "inputs": [
        {
          "name": "_spender",
          "type": "address"
        },
        {
          "name": "_addedValue",
          "type": "uint256"
        }
      ],
      "name": "increaseApproval",
      "outputs": [
        {
          "name": "",
          "type": "bool"
        }
      ],
      "payable": false,
      "stateMutability": "nonpayable",
      "type": "function"
    },
    {
      "constant": true,
      "inputs": [
        {
          "name": "_owner",
          "type": "address"
        },
        {
          "name": "_spender",
          "type": "address"
        }
      ],
      "name": "allowance",
      "outputs": [
        {
          "name": "",
          "type": "uint256"
        }
      ],
      "payable": false,
      "stateMutability": "view",
      "type": "function"
    },
    {
      "constant": true,
      "inputs": [],
      "name": "pendingOwner",
      "outputs": [
        {
          "name": "",
          "type": "address"
        }
      ],
      "payable": false,
      "stateMutability": "view",
      "type": "function"
    },
    {
      "constant": true,
      "inputs": [],
      "name": "end",
      "outputs": [
        {
          "name": "",
          "type": "uint256"
        }
      ],
      "payable": false,
      "stateMutability": "view",
      "type": "function"
    },
    {
      "constant": false,
      "inputs": [
        {
          "name": "newOwner",
          "type": "address"
        }
      ],
      "name": "transferOwnership",
      "outputs": [],
      "payable": false,
      "stateMutability": "nonpayable",
      "type": "function"
    },
    {
      "inputs": [],
      "payable": false,
      "stateMutability": "nonpayable",
      "type": "constructor"
    },
    {
      "anonymous": false,
      "inputs": [
        {
          "indexed": true,
          "name": "previousOwner",
          "type": "address"
        },
        {
          "indexed": true,
          "name": "newOwner",
          "type": "address"
        }
      ],
      "name": "OwnershipTransferred",
      "type": "event"
    },
    {
      "anonymous": false,
      "inputs": [
        {
          "indexed": true,
          "name": "owner",
          "type": "address"
        },
        {
          "indexed": true,
          "name": "spender",
          "type": "address"
        },
        {
          "indexed": false,
          "name": "value",
          "type": "uint256"
        }
      ],
      "name": "Approval",
      "type": "event"
    },
    {
      "anonymous": false,
      "inputs": [
        {
          "indexed": true,
          "name": "from",
          "type": "address"
        },
        {
          "indexed": true,
          "name": "to",
          "type": "address"
        },
        {
          "indexed": false,
          "name": "value",
          "type": "uint256"
        }
      ],
      "name": "Transfer",
      "type": "event"
    }
  ],
  "bytecode": "0x608060405234801561001057600080fd5b5060038054600160a060020a03191633600160a060020a031690811790915566b1a2bc2ec50000600181905560008281526020818152604080832084905580519384525191927fddf252ad1be2c89b69c2b068fc378daa952ba7f163c4a11628f55a4df523b3ef929081900390910190a3610d32806100906000396000f3006080604052600436106101115763ffffffff7c010000000000000000000000000000000000000000000000000000000060003504166306fdde038114610116578063095ea7b3146101a057806318160ddd146101d857806323b872dd146101ff5780632ff2e9dc14610229578063313ce5671461023e5780634e71e0c814610269578063661884631461028057806369ffa08a146102a457806370a08231146102cb5780638da5cb5b146102ec578063a9059cbb1461031d578063abf3fb1014610341578063be9a655514610356578063c4590d3f1461036b578063d73dd62314610386578063dd62ed3e146103aa578063e30c3978146103d1578063efbe1c1c146103e6578063f2fde38b146103fb575b600080fd5b34801561012257600080fd5b5061012b61041c565b6040805160208082528351818301528351919283929083019185019080838360005b8381101561016557818101518382015260200161014d565b50505050905090810190601f1680156101925780820380516001836020036101000a031916815260200191505b509250505060405180910390f35b3480156101ac57600080fd5b506101c4600160a060020a0360043516602435610453565b604080519115158252519081900360200190f35b3480156101e457600080fd5b506101ed6104bd565b60408051918252519081900360200190f35b34801561020b57600080fd5b506101c4600160a060020a03600435811690602435166044356104c3565b34801561023557600080fd5b506101ed610643565b34801561024a57600080fd5b5061025361064e565b6040805160ff9092168252519081900360200190f35b34801561027557600080fd5b5061027e610653565b005b34801561028c57600080fd5b506101c4600160a060020a0360043516602435610705565b3480156102b057600080fd5b506101c4600160a060020a03600435811690602435166107fe565b3480156102d757600080fd5b506101ed600160a060020a0360043516610a15565b3480156102f857600080fd5b50610301610a30565b60408051600160a060020a039092168252519081900360200190f35b34801561032957600080fd5b506101c4600160a060020a0360043516602435610a3f565b34801561034d57600080fd5b5061012b610b45565b34801561036257600080fd5b506101ed610b7c565b34801561037757600080fd5b5061027e600435602435610b82565b34801561039257600080fd5b506101c4600160a060020a0360043516602435610bb2565b3480156103b657600080fd5b506101ed600160a060020a0360043581169060243516610c54565b3480156103dd57600080fd5b50610301610c7f565b3480156103f257600080fd5b506101ed610c8e565b34801561040757600080fd5b5061027e600160a060020a0360043516610c94565b60408051808201909152600b81527f54616e7a6f20546f6b656e000000000000000000000000000000000000000000602082015281565b600160a060020a03338116600081815260026020908152604080832094871680845294825280832086905580518681529051929493927f8c5be1e5ebec7d5bd14f71427d1e84f3dd0314c0f7b2291e5b200ac8c7c3b925929181900390910190a350600192915050565b60015490565b6000600160a060020a03831615156104da57600080fd5b600160a060020a0384166000908152602081905260409020548211156104ff57600080fd5b600160a060020a038085166000908152600260209081526040808320339094168352929052205482111561053257600080fd5b600160a060020a03841660009081526020819052604090205461055b908363ffffffff610cde16565b600160a060020a038086166000908152602081905260408082209390935590851681522054610590908363ffffffff610cf016565b600160a060020a03808516600090815260208181526040808320949094558783168252600281528382203390931682529190915220546105d6908363ffffffff610cde16565b600160a060020a038086166000818152600260209081526040808320338616845282529182902094909455805186815290519287169391927fddf252ad1be2c89b69c2b068fc378daa952ba7f163c4a11628f55a4df523b3ef929181900390910190a35060019392505050565b66b1a2bc2ec5000081565b600881565b60045433600160a060020a0390811691161461066e57600080fd5b600554431115801561068257506006544310155b151561068d57600080fd5b600454600354604051600160a060020a0392831692909116907f8be0079c531659141344cd1fd0a4f28419497f9722a3daafe3b4186f6b6457e090600090a3600480546003805473ffffffffffffffffffffffffffffffffffffffff19908116600160a060020a038416179091551690556000600555565b600160a060020a0333811660009081526002602090815260408083209386168352929052908120548083111561076257600160a060020a033381166000908152600260209081526040808320938816835292905290812055610799565b610772818463ffffffff610cde16565b600160a060020a033381166000908152600260209081526040808320938916835292905220555b600160a060020a0333811660008181526002602090815260408083209489168084529482529182902054825190815291517f8c5be1e5ebec7d5bd14f71427d1e84f3dd0314c0f7b2291e5b200ac8c7c3b9259281900390910190a35060019392505050565b6003546000908190819033600160a060020a0390811691161461082057600080fd5b600160a060020a038516151561087157600354604051600160a060020a039182169130163180156108fc02916000818181858888f1935050505015801561086b573d6000803e3d6000fd5b50610a0d565b84915081600160a060020a03166370a08231306040518263ffffffff167c01000000000000000000000000000000000000000000000000000000000281526004018082600160a060020a0316600160a060020a03168152602001915050602060405180830381600087803b1580156108e857600080fd5b505af11580156108fc573d6000803e3d6000fd5b505050506040513d602081101561091257600080fd5b5051604080517fa9059cbb000000000000000000000000000000000000000000000000000000008152600160a060020a0387811660048301526024820184905291519293509084169163a9059cbb916044808201926020929091908290030181600087803b15801561098357600080fd5b505af1158015610997573d6000803e3d6000fd5b505050506040513d60208110156109ad57600080fd5b505115610a085783600160a060020a031685600160a060020a03167fddf252ad1be2c89b69c2b068fc378daa952ba7f163c4a11628f55a4df523b3ef836040518082815260200191505060405180910390a360019250610a0d565b600092505b505092915050565b600160a060020a031660009081526020819052604090205490565b600354600160a060020a031681565b6000600236604414610a4d57fe5b600160a060020a0384161515610a6257600080fd5b600160a060020a033316600090815260208190526040902054831115610a8757600080fd5b600160a060020a033316600090815260208190526040902054610ab0908463ffffffff610cde16565b600160a060020a033381166000908152602081905260408082209390935590861681522054610ae5908463ffffffff610cf016565b600160a060020a03808616600081815260208181526040918290209490945580518781529051919333909316927fddf252ad1be2c89b69c2b068fc378daa952ba7f163c4a11628f55a4df523b3ef92918290030190a35060019392505050565b60408051808201909152600381527f545a4f0000000000000000000000000000000000000000000000000000000000602082015281565b60065481565b60035433600160a060020a03908116911614610b9d57600080fd5b80821115610baa57600080fd5b600555600655565b600160a060020a033381166000908152600260209081526040808320938616835292905290812054610bea908363ffffffff610cf016565b600160a060020a0333811660008181526002602090815260408083209489168084529482529182902085905581519485529051929391927f8c5be1e5ebec7d5bd14f71427d1e84f3dd0314c0f7b2291e5b200ac8c7c3b9259281900390910190a350600192915050565b600160a060020a03918216600090815260026020908152604080832093909416825291909152205490565b600454600160a060020a031681565b60055481565b60035433600160a060020a03908116911614610caf57600080fd5b6004805473ffffffffffffffffffffffffffffffffffffffff1916600160a060020a0392909216919091179055565b600082821115610cea57fe5b50900390565b600082820183811015610cff57fe5b93925050505600a165627a7a723058208a897c3c5c7c410e62d1eaf80b4528b655659ed2868c9ed348154cb0e0a10e470029",
  "source": "pragma solidity ^0.4.23;\n\nimport \"../TanzoToken.sol\";\n\ncontract TanzoTokenMock is TanzoToken {\n\n  constructor() public {}\n\n}\n",
  "sourcePath": "D:\\Projects\\ico-platform\\src\\ico-platform-tanzo-token\\contracts\\mocks\\TanzoTokenMock.sol",
  "compiler": {
    "name": "solc",
    "version": "0.4.23+commit.124ca40d.Emscripten.clang"
  },
  "schemaVersion": "2.0.0",
  "updatedAt": "2018-04-25T15:10:54.713Z"
}